{
  "_format": "hh-sol-artifact-1",
  "contractName": "InvoiceManager",
  "sourceName": "contracts/InvoiceManager.sol",
  "abi": [
    {
      "inputs": [],
      "stateMutability": "nonpayable",
      "type": "constructor"
    },
    {
      "inputs": [
        {
          "internalType": "address",
          "name": "owner",
          "type": "address"
        }
      ],
      "name": "OwnableInvalidOwner",
      "type": "error"
    },
    {
      "inputs": [
        {
          "internalType": "address",
          "name": "account",
          "type": "address"
        }
      ],
      "name": "OwnableUnauthorizedAccount",
      "type": "error"
    },
    {
      "inputs": [],
      "name": "ReentrancyGuardReentrantCall",
      "type": "error"
    },
    {
      "anonymous": false,
      "inputs": [
        {
          "indexed": true,
          "internalType": "uint256",
          "name": "invoiceId",
          "type": "uint256"
        },
        {
          "indexed": true,
          "internalType": "address",
          "name": "resolver",
          "type": "address"
        },
        {
          "indexed": false,
          "internalType": "enum InvoiceManager.InvoiceStatus",
          "name": "newStatus",
          "type": "uint8"
        }
      ],
      "name": "DisputeResolved",
      "type": "event"
    },
    {
      "anonymous": false,
      "inputs": [
        {
          "indexed": true,
          "internalType": "uint256",
          "name": "id",
          "type": "uint256"
        },
        {
          "indexed": true,
          "internalType": "address",
          "name": "issuer",
          "type": "address"
        }
      ],
      "name": "InvoiceCancelled",
      "type": "event"
    },
    {
      "anonymous": false,
      "inputs": [
        {
          "indexed": true,
          "internalType": "uint256",
          "name": "id",
          "type": "uint256"
        },
        {
          "indexed": true,
          "internalType": "address",
          "name": "issuer",
          "type": "address"
        },
        {
          "indexed": true,
          "internalType": "address",
          "name": "recipient",
          "type": "address"
        },
        {
          "indexed": false,
          "internalType": "uint256",
          "name": "amount",
          "type": "uint256"
        },
        {
          "indexed": false,
          "internalType": "address",
          "name": "tokenAddress",
          "type": "address"
        },
        {
          "indexed": false,
          "internalType": "string",
          "name": "ipfsHash",
          "type": "string"
        }
      ],
      "name": "InvoiceCreated",
      "type": "event"
    },
    {
      "anonymous": false,
      "inputs": [
        {
          "indexed": true,
          "internalType": "uint256",
          "name": "invoiceId",
          "type": "uint256"
        },
        {
          "indexed": true,
          "internalType": "address",
          "name": "initiator",
          "type": "address"
        },
        {
          "indexed": false,
          "internalType": "string",
          "name": "reason",
          "type": "string"
        }
      ],
      "name": "InvoiceDisputed",
      "type": "event"
    },
    {
      "anonymous": false,
      "inputs": [
        {
          "indexed": true,
          "internalType": "uint256",
          "name": "id",
          "type": "uint256"
        },
        {
          "indexed": true,
          "internalType": "address",
          "name": "payer",
          "type": "address"
        },
        {
          "indexed": false,
          "internalType": "uint256",
          "name": "amount",
          "type": "uint256"
        },
        {
          "indexed": false,
          "internalType": "uint256",
          "name": "fee",
          "type": "uint256"
        }
      ],
      "name": "InvoicePaid",
      "type": "event"
    },
    {
      "anonymous": false,
      "inputs": [
        {
          "indexed": true,
          "internalType": "address",
          "name": "previousOwner",
          "type": "address"
        },
        {
          "indexed": true,
          "internalType": "address",
          "name": "newOwner",
          "type": "address"
        }
      ],
      "name": "OwnershipTransferred",
      "type": "event"
    },
    {
      "inputs": [
        {
          "internalType": "address",
          "name": "_resolver",
          "type": "address"
        }
      ],
      "name": "addResolver",
      "outputs": [],
      "stateMutability": "nonpayable",
      "type": "function"
    },
    {
      "inputs": [
        {
          "internalType": "address",
          "name": "",
          "type": "address"
        }
      ],
      "name": "authorizedResolvers",
      "outputs": [
        {
          "internalType": "bool",
          "name": "",
          "type": "bool"
        }
      ],
      "stateMutability": "view",
      "type": "function"
    },
    {
      "inputs": [
        {
          "internalType": "uint256",
          "name": "_invoiceId",
          "type": "uint256"
        }
      ],
      "name": "cancelInvoice",
      "outputs": [],
      "stateMutability": "nonpayable",
      "type": "function"
    },
    {
      "inputs": [
        {
          "internalType": "string",
          "name": "_ipfsHash",
          "type": "string"
        },
        {
          "internalType": "address",
          "name": "_recipient",
          "type": "address"
        },
        {
          "internalType": "uint256",
          "name": "_amount",
          "type": "uint256"
        },
        {
          "internalType": "address",
          "name": "_tokenAddress",
          "type": "address"
        },
        {
          "internalType": "uint256",
          "name": "_dueDate",
          "type": "uint256"
        },
        {
          "internalType": "string",
          "name": "_description",
          "type": "string"
        }
      ],
      "name": "createInvoice",
      "outputs": [
        {
          "internalType": "uint256",
          "name": "",
          "type": "uint256"
        }
      ],
      "stateMutability": "nonpayable",
      "type": "function"
    },
    {
      "inputs": [],
      "name": "disputeFee",
      "outputs": [
        {
          "internalType": "uint256",
          "name": "",
          "type": "uint256"
        }
      ],
      "stateMutability": "view",
      "type": "function"
    },
    {
      "inputs": [
        {
          "internalType": "uint256",
          "name": "",
          "type": "uint256"
        }
      ],
      "name": "disputes",
      "outputs": [
        {
          "internalType": "uint256",
          "name": "invoiceId",
          "type": "uint256"
        },
        {
          "internalType": "address",
          "name": "initiator",
          "type": "address"
        },
        {
          "internalType": "string",
          "name": "reason",
          "type": "string"
        },
        {
          "internalType": "enum InvoiceManager.DisputeStatus",
          "name": "status",
          "type": "uint8"
        },
        {
          "internalType": "uint256",
          "name": "createdAt",
          "type": "uint256"
        },
        {
          "internalType": "uint256",
          "name": "resolvedAt",
          "type": "uint256"
        },
        {
          "internalType": "address",
          "name": "resolver",
          "type": "address"
        }
      ],
      "stateMutability": "view",
      "type": "function"
    },
    {
      "inputs": [],
      "name": "emergencyPause",
      "outputs": [],
      "stateMutability": "nonpayable",
      "type": "function"
    },
    {
      "inputs": [
        {
          "internalType": "uint256",
          "name": "_invoiceId",
          "type": "uint256"
        }
      ],
      "name": "getDispute",
      "outputs": [
        {
          "components": [
            {
              "internalType": "uint256",
              "name": "invoiceId",
              "type": "uint256"
            },
            {
              "internalType": "address",
              "name": "initiator",
              "type": "address"
            },
            {
              "internalType": "string",
              "name": "reason",
              "type": "string"
            },
            {
              "internalType": "enum InvoiceManager.DisputeStatus",
              "name": "status",
              "type": "uint8"
            },
            {
              "internalType": "uint256",
              "name": "createdAt",
              "type": "uint256"
            },
            {
              "internalType": "uint256",
              "name": "resolvedAt",
              "type": "uint256"
            },
            {
              "internalType": "address",
              "name": "resolver",
              "type": "address"
            }
          ],
          "internalType": "struct InvoiceManager.Dispute",
          "name": "",
          "type": "tuple"
        }
      ],
      "stateMutability": "view",
      "type": "function"
    },
    {
      "inputs": [
        {
          "internalType": "uint256",
          "name": "_invoiceId",
          "type": "uint256"
        }
      ],
      "name": "getInvoice",
      "outputs": [
        {
          "components": [
            {
              "internalType": "uint256",
              "name": "id",
              "type": "uint256"
            },
            {
              "internalType": "string",
              "name": "ipfsHash",
              "type": "string"
            },
            {
              "internalType": "address",
              "name": "issuer",
              "type": "address"
            },
            {
              "internalType": "address",
              "name": "recipient",
              "type": "address"
            },
            {
              "internalType": "uint256",
              "name": "amount",
              "type": "uint256"
            },
            {
              "internalType": "address",
              "name": "tokenAddress",
              "type": "address"
            },
            {
              "internalType": "enum InvoiceManager.InvoiceStatus",
              "name": "status",
              "type": "uint8"
            },
            {
              "internalType": "uint256",
              "name": "createdAt",
              "type": "uint256"
            },
            {
              "internalType": "uint256",
              "name": "dueDate",
              "type": "uint256"
            },
            {
              "internalType": "uint256",
              "name": "paidAt",
              "type": "uint256"
            },
            {
              "internalType": "string",
              "name": "description",
              "type": "string"
            }
          ],
          "internalType": "struct InvoiceManager.Invoice",
          "name": "",
          "type": "tuple"
        }
      ],
      "stateMutability": "view",
      "type": "function"
    },
    {
      "inputs": [
        {
          "internalType": "enum InvoiceManager.InvoiceStatus",
          "name": "_status",
          "type": "uint8"
        },
        {
          "internalType": "uint256",
          "name": "_limit",
          "type": "uint256"
        },
        {
          "internalType": "uint256",
          "name": "_offset",
          "type": "uint256"
        }
      ],
      "name": "getInvoicesByStatus",
      "outputs": [
        {
          "components": [
            {
              "internalType": "uint256",
              "name": "id",
              "type": "uint256"
            },
            {
              "internalType": "string",
              "name": "ipfsHash",
              "type": "string"
            },
            {
              "internalType": "address",
              "name": "issuer",
              "type": "address"
            },
            {
              "internalType": "address",
              "name": "recipient",
              "type": "address"
            },
            {
              "internalType": "uint256",
              "name": "amount",
              "type": "uint256"
            },
            {
              "internalType": "address",
              "name": "tokenAddress",
              "type": "address"
            },
            {
              "internalType": "enum InvoiceManager.InvoiceStatus",
              "name": "status",
              "type": "uint8"
            },
            {
              "internalType": "uint256",
              "name": "createdAt",
              "type": "uint256"
            },
            {
              "internalType": "uint256",
              "name": "dueDate",
              "type": "uint256"
            },
            {
              "internalType": "uint256",
              "name": "paidAt",
              "type": "uint256"
            },
            {
              "internalType": "string",
              "name": "description",
              "type": "string"
            }
          ],
          "internalType": "struct InvoiceManager.Invoice[]",
          "name": "",
          "type": "tuple[]"
        }
      ],
      "stateMutability": "view",
      "type": "function"
    },
    {
      "inputs": [
        {
          "internalType": "address",
          "name": "_user",
          "type": "address"
        }
      ],
      "name": "getUserInvoices",
      "outputs": [
        {
          "internalType": "uint256[]",
          "name": "",
          "type": "uint256[]"
        }
      ],
      "stateMutability": "view",
      "type": "function"
    },
    {
      "inputs": [
        {
          "internalType": "uint256",
          "name": "",
          "type": "uint256"
        }
      ],
      "name": "invoices",
      "outputs": [
        {
          "internalType": "uint256",
          "name": "id",
          "type": "uint256"
        },
        {
          "internalType": "string",
          "name": "ipfsHash",
          "type": "string"
        },
        {
          "internalType": "address",
          "name": "issuer",
          "type": "address"
        },
        {
          "internalType": "address",
          "name": "recipient",
          "type": "address"
        },
        {
          "internalType": "uint256",
          "name": "amount",
          "type": "uint256"
        },
        {
          "internalType": "address",
          "name": "tokenAddress",
          "type": "address"
        },
        {
          "internalType": "enum InvoiceManager.InvoiceStatus",
          "name": "status",
          "type": "uint8"
        },
        {
          "internalType": "uint256",
          "name": "createdAt",
          "type": "uint256"
        },
        {
          "internalType": "uint256",
          "name": "dueDate",
          "type": "uint256"
        },
        {
          "internalType": "uint256",
          "name": "paidAt",
          "type": "uint256"
        },
        {
          "internalType": "string",
          "name": "description",
          "type": "string"
        }
      ],
      "stateMutability": "view",
      "type": "function"
    },
    {
      "inputs": [],
      "name": "nextInvoiceId",
      "outputs": [
        {
          "internalType": "uint256",
          "name": "",
          "type": "uint256"
        }
      ],
      "stateMutability": "view",
      "type": "function"
    },
    {
      "inputs": [],
      "name": "owner",
      "outputs": [
        {
          "internalType": "address",
          "name": "",
          "type": "address"
        }
      ],
      "stateMutability": "view",
      "type": "function"
    },
    {
      "inputs": [
        {
          "internalType": "uint256",
          "name": "_invoiceId",
          "type": "uint256"
        }
      ],
      "name": "payInvoiceETH",
      "outputs": [],
      "stateMutability": "payable",
      "type": "function"
    },
    {
      "inputs": [
        {
          "internalType": "uint256",
          "name": "_invoiceId",
          "type": "uint256"
        }
      ],
      "name": "payInvoiceToken",
      "outputs": [],
      "stateMutability": "nonpayable",
      "type": "function"
    },
    {
      "inputs": [],
      "name": "platformFee",
      "outputs": [
        {
          "internalType": "uint256",
          "name": "",
          "type": "uint256"
        }
      ],
      "stateMutability": "view",
      "type": "function"
    },
    {
      "inputs": [
        {
          "internalType": "uint256",
          "name": "_invoiceId",
          "type": "uint256"
        },
        {
          "internalType": "string",
          "name": "_reason",
          "type": "string"
        }
      ],
      "name": "raiseDispute",
      "outputs": [],
      "stateMutability": "payable",
      "type": "function"
    },
    {
      "inputs": [
        {
          "internalType": "address",
          "name": "_resolver",
          "type": "address"
        }
      ],
      "name": "removeResolver",
      "outputs": [],
      "stateMutability": "nonpayable",
      "type": "function"
    },
    {
      "inputs": [],
      "name": "renounceOwnership",
      "outputs": [],
      "stateMutability": "nonpayable",
      "type": "function"
    },
    {
      "inputs": [
        {
          "internalType": "uint256",
          "name": "_invoiceId",
          "type": "uint256"
        },
        {
          "internalType": "enum InvoiceManager.InvoiceStatus",
          "name": "_newStatus",
          "type": "uint8"
        }
      ],
      "name": "resolveDispute",
      "outputs": [],
      "stateMutability": "nonpayable",
      "type": "function"
    },
    {
      "inputs": [
        {
          "internalType": "address",
          "name": "newOwner",
          "type": "address"
        }
      ],
      "name": "transferOwnership",
      "outputs": [],
      "stateMutability": "nonpayable",
      "type": "function"
    },
    {
      "inputs": [
        {
          "internalType": "uint256",
          "name": "_newFee",
          "type": "uint256"
        }
      ],
      "name": "updateDisputeFee",
      "outputs": [],
      "stateMutability": "nonpayable",
      "type": "function"
    },
    {
      "inputs": [
        {
          "internalType": "uint256",
          "name": "_newFee",
          "type": "uint256"
        }
      ],
      "name": "updatePlatformFee",
      "outputs": [],
      "stateMutability": "nonpayable",
      "type": "function"
    },
    {
      "inputs": [
        {
          "internalType": "address",
          "name": "",
          "type": "address"
        },
        {
          "internalType": "uint256",
          "name": "",
          "type": "uint256"
        }
      ],
      "name": "userInvoices",
      "outputs": [
        {
          "internalType": "uint256",
          "name": "",
          "type": "uint256"
        }
      ],
      "stateMutability": "view",
      "type": "function"
    },
    {
      "inputs": [],
      "name": "withdrawFees",
      "outputs": [],
      "stateMutability": "nonpayable",
      "type": "function"
    }
  ],
  "bytecode": "0x60806040526001600655662386f26fc1000060075560fa6008553480156200002657600080fd5b50600160005533806200005357604051631e4fbdf760e01b81526000600482015260240160405180910390fd5b6200005e816200007f565b50336000908152600560205260409020805460ff19166001179055620000d1565b600180546001600160a01b038381166001600160a01b0319831681179093556040519116919082907f8be0079c531659141344cd1fd0a4f28419497f9722a3daafe3b4186f6b6457e090600090a35050565b612f6c80620000e16000396000f3fe6080604052600436106101815760003560e01c80638da5cb5b116100d1578063d429a9ca1161008a578063e3a96cbd11610064578063e3a96cbd1461046e578063e55e42111461049b578063f0334dea146104bb578063f2fde38b146104e857600080fd5b8063d429a9ca146103ee578063d794d2d91461040e578063da9c273d1461044e57600080fd5b80638da5cb5b1461033d5780639de2e9d714610365578063a133353614610385578063aa0b5988146103a5578063b9ce896b146103c5578063cfe2aa4c146103db57600080fd5b8063476343ee1161013e578063564a565d11610118578063564a565d146102cc5780635aef573c146102ff5780636ff2a95314610312578063715018a61461032857600080fd5b8063476343ee1461026b5780634e6d14051461028057806351858e27146102b757600080fd5b80630ad6b0a5146101865780630c54093b146101b957806324d3b3e2146101db57806326232a2e14610208578063390a0b6f1461021e5780633a23cc0a1461023e575b600080fd5b34801561019257600080fd5b506101a66101a13660046126eb565b610508565b6040519081526020015b60405180910390f35b3480156101c557600080fd5b506101d96101d4366004612715565b610539565b005b3480156101e757600080fd5b506101fb6101f636600461272e565b610963565b6040516101b09190612749565b34801561021457600080fd5b506101a660085481565b34801561022a57600080fd5b506101d961023936600461272e565b6109cf565b34801561024a57600080fd5b5061025e610259366004612715565b6109fb565b6040516101b091906128d0565b34801561027757600080fd5b506101d9610c13565b34801561028c57600080fd5b506102a061029b366004612715565b610d0b565b6040516101b09b9a999897969594939291906128e3565b3480156102c357600080fd5b506101d9610e89565b3480156102d857600080fd5b506102ec6102e7366004612715565b610e93565b6040516101b0979695949392919061297b565b6101d961030d366004612a76565b610f6e565b34801561031e57600080fd5b506101a660065481565b34801561033457600080fd5b506101d9611477565b34801561034957600080fd5b506001546040516001600160a01b0390911681526020016101b0565b34801561037157600080fd5b506101d9610380366004612715565b611489565b34801561039157600080fd5b506101d96103a036600461272e565b611496565b3480156103b157600080fd5b506101d96103c0366004612715565b6114bf565b3480156103d157600080fd5b506101a660075481565b6101d96103e9366004612715565b611516565b3480156103fa57600080fd5b506101a6610409366004612abd565b61184d565b34801561041a57600080fd5b5061043e61042936600461272e565b60056020526000908152604090205460ff1681565b60405190151581526020016101b0565b34801561045a57600080fd5b506101d9610469366004612715565b611bcd565b34801561047a57600080fd5b5061048e610489366004612715565b611d16565b6040516101b09190612b54565b3480156104a757600080fd5b506101d96104b6366004612be0565b611e79565b3480156104c757600080fd5b506104db6104d6366004612c0c565b612157565b6040516101b09190612c3f565b3480156104f457600080fd5b506101d961050336600461272e565b612530565b6004602052816000526040600020818154811061052457600080fd5b90600052602060002001600091509150505481565b61054161256b565b80600081118015610553575060065481105b6105785760405162461bcd60e51b815260040161056f90612ca1565b60405180910390fd5b6000828152600260205260408120906005820154600160a01b900460ff1660048111156105a7576105a76127d3565b146105ea5760405162461bcd60e51b8152602060048201526013602482015272496e766f696365206e6f742070617961626c6560681b604482015260640161056f565b60058101546001600160a01b031661064e5760405162461bcd60e51b815260206004820152602160248201527f5468697320696e766f69636520726571756972657320455448207061796d656e6044820152601d60fa1b606482015260840161056f565b60058101546004808301546040516370a0823160e01b815233928101929092526001600160a01b03909216919082906370a0823190602401602060405180830381865afa1580156106a3573d6000803e3d6000fd5b505050506040513d601f19601f820116820180604052508101906106c79190612ccd565b10156107155760405162461bcd60e51b815260206004820152601a60248201527f496e73756666696369656e7420746f6b656e2062616c616e6365000000000000604482015260640161056f565b6000612710600854846004015461072c9190612cfc565b6107369190612d19565b9050600081846004015461074a9190612d3b565b600585018054600160a01b60ff60a01b1990911617905542600886015560028501546040516323b872dd60e01b81523360048201526001600160a01b039182166024820152604481018390529192508416906323b872dd906064016020604051808303816000875af11580156107c4573d6000803e3d6000fd5b505050506040513d601f19601f820116820180604052508101906107e89190612d4e565b61082c5760405162461bcd60e51b8152602060048201526015602482015274151bdad95b881d1c985b9cd9995c8819985a5b1959605a1b604482015260640161056f565b811561090e57826001600160a01b03166323b872dd336108546001546001600160a01b031690565b6040516001600160e01b031960e085901b1681526001600160a01b03928316600482015291166024820152604481018590526064016020604051808303816000875af11580156108a8573d6000803e3d6000fd5b505050506040513d601f19601f820116820180604052508101906108cc9190612d4e565b61090e5760405162461bcd60e51b8152602060048201526013602482015272119959481d1c985b9cd9995c8819985a5b1959606a1b604482015260640161056f565b60048401546040805191825260208201849052339188917fad182a582b60dfb698b15ddbe85c01fe3d9c2161ef730aa75fbc0688d7a0ec3d91015b60405180910390a350505050506109606001600055565b50565b6001600160a01b0381166000908152600460209081526040918290208054835181840281018401909452808452606093928301828280156109c357602002820191906000526020600020905b8154815260200190600101908083116109af575b50505050509050919050565b6109d7612595565b6001600160a01b03166000908152600560205260409020805460ff19166001179055565b610a03612614565b81600081118015610a15575060065481105b610a315760405162461bcd60e51b815260040161056f90612ca1565b600260008481526020019081526020016000206040518061016001604052908160008201548152602001600182018054610a6a90612d70565b80601f0160208091040260200160405190810160405280929190818152602001828054610a9690612d70565b8015610ae35780601f10610ab857610100808354040283529160200191610ae3565b820191906000526020600020905b815481529060010190602001808311610ac657829003601f168201915b505050918352505060028201546001600160a01b03908116602083015260038301548116604083015260048084015460608401526005840154918216608084015260a090920191600160a01b90910460ff1690811115610b4557610b456127d3565b6004811115610b5657610b566127d3565b8152602001600682015481526020016007820154815260200160088201548152602001600982018054610b8890612d70565b80601f0160208091040260200160405190810160405280929190818152602001828054610bb490612d70565b8015610c015780601f10610bd657610100808354040283529160200191610c01565b820191906000526020600020905b815481529060010190602001808311610be457829003601f168201915b50505050508152505091505b50919050565b610c1b612595565b4780610c5f5760405162461bcd60e51b81526020600482015260136024820152724e6f206665657320746f20776974686472617760681b604482015260640161056f565b6000610c736001546001600160a01b031690565b6001600160a01b03168260405160006040518083038185875af1925050503d8060008114610cbd576040519150601f19603f3d011682016040523d82523d6000602084013e610cc2565b606091505b5050905080610d075760405162461bcd60e51b815260206004820152601160248201527015da5d1a191c985dd85b0819985a5b1959607a1b604482015260640161056f565b5050565b60026020526000908152604090208054600182018054919291610d2d90612d70565b80601f0160208091040260200160405190810160405280929190818152602001828054610d5990612d70565b8015610da65780601f10610d7b57610100808354040283529160200191610da6565b820191906000526020600020905b815481529060010190602001808311610d8957829003601f168201915b50505050600283015460038401546004850154600586015460068701546007880154600889015460098a018054999a6001600160a01b039889169a97891699509597851696600160a01b90950460ff1695939492939192610e0690612d70565b80601f0160208091040260200160405190810160405280929190818152602001828054610e3290612d70565b8015610e7f5780601f10610e5457610100808354040283529160200191610e7f565b820191906000526020600020905b815481529060010190602001808311610e6257829003601f168201915b505050505090508b565b610e91612595565b565b60036020526000908152604090208054600182015460028301805492936001600160a01b0390921692610ec590612d70565b80601f0160208091040260200160405190810160405280929190818152602001828054610ef190612d70565b8015610f3e5780601f10610f1357610100808354040283529160200191610f3e565b820191906000526020600020905b815481529060010190602001808311610f2157829003601f168201915b50505050600383015460048401546005850154600690950154939460ff909216939092506001600160a01b031687565b6000828152600260209081526040808320815161016081019092528054825260018101805487959484019190610fa390612d70565b80601f0160208091040260200160405190810160405280929190818152602001828054610fcf90612d70565b801561101c5780601f10610ff15761010080835404028352916020019161101c565b820191906000526020600020905b815481529060010190602001808311610fff57829003601f168201915b505050918352505060028201546001600160a01b03908116602083015260038301548116604083015260048084015460608401526005840154918216608084015260a090920191600160a01b90910460ff169081111561107e5761107e6127d3565b600481111561108f5761108f6127d3565b81526020016006820154815260200160078201548152602001600882015481526020016009820180546110c190612d70565b80601f01602080910402602001604051908101604052809291908181526020018280546110ed90612d70565b801561113a5780601f1061110f5761010080835404028352916020019161113a565b820191906000526020600020905b81548152906001019060200180831161111d57829003601f168201915b505050505081525050905080604001516001600160a01b0316336001600160a01b0316148061117e575080606001516001600160a01b0316336001600160a01b0316145b6111ca5760405162461bcd60e51b815260206004820152601f60248201527f4e6f7420617574686f72697a656420666f72207468697320696e766f69636500604482015260640161056f565b60075434101561121c5760405162461bcd60e51b815260206004820152601860248201527f496e73756666696369656e742064697370757465206665650000000000000000604482015260640161056f565b6000848152600360208190526040822081015460ff1690811115611242576112426127d3565b146112885760405162461bcd60e51b81526020600482015260166024820152754469737075746520616c72656164792065786973747360501b604482015260640161056f565b6000848152600260205260408120906005820154600160a01b900460ff1660048111156112b7576112b76127d3565b14806112e2575060016005820154600160a01b900460ff1660048111156112e0576112e06127d3565b145b61132e5760405162461bcd60e51b815260206004820152601b60248201527f43616e6e6f742064697370757465207468697320696e766f6963650000000000604482015260640161056f565b6040805160e0810182528681523360208201529081018590526060810160018152426020808301919091526000604080840182905260609093018190528881526003825282902083518155908301516001820180546001600160a01b0319166001600160a01b039092169190911790559082015160028201906113b19082612df3565b5060608201518160030160006101000a81548160ff021916908360038111156113dc576113dc6127d3565b02179055506080820151600482015560a082015160058083019190915560c090920151600690910180546001600160a01b0319166001600160a01b039092169190911790558101805460ff60a01b1916600160a11b179055604051339086907ffb6c9791c15996c332dc1393414a00d034442812d39e5ef79b6be51961efc92890611468908890612eb3565b60405180910390a35050505050565b61147f612595565b610e9160006125c2565b611491612595565b600755565b61149e612595565b6001600160a01b03166000908152600560205260409020805460ff19169055565b6114c7612595565b6103e88111156115115760405162461bcd60e51b81526020600482015260156024820152744665652063616e6e6f74206578636565642031302560581b604482015260640161056f565b600855565b61151e61256b565b80600081118015611530575060065481105b61154c5760405162461bcd60e51b815260040161056f90612ca1565b6000828152600260205260408120906005820154600160a01b900460ff16600481111561157b5761157b6127d3565b146115be5760405162461bcd60e51b8152602060048201526013602482015272496e766f696365206e6f742070617961626c6560681b604482015260640161056f565b60058101546001600160a01b0316156116255760405162461bcd60e51b815260206004820152602360248201527f5468697320696e766f69636520726571756972657320746f6b656e207061796d604482015262195b9d60ea1b606482015260840161056f565b80600401543410156116705760405162461bcd60e51b8152602060048201526014602482015273125b9cdd59999a58da595b9d081c185e5b595b9d60621b604482015260640161056f565b600061271060085483600401546116879190612cfc565b6116919190612d19565b905060008183600401546116a59190612d3b565b60058401805460ff60a01b1916600160a01b17905542600885015560028401546040519192506000916001600160a01b039091169083908381818185875af1925050503d8060008114611714576040519150601f19603f3d011682016040523d82523d6000602084013e611719565b606091505b505090508061176a5760405162461bcd60e51b815260206004820152601760248201527f5061796d656e74207472616e73666572206661696c6564000000000000000000604482015260640161056f565b836004015434111561180e576004840154600090339061178a9034612d3b565b604051600081818185875af1925050503d80600081146117c6576040519150601f19603f3d011682016040523d82523d6000602084013e6117cb565b606091505b505090508061180c5760405162461bcd60e51b815260206004820152600d60248201526c1499599d5b990819985a5b1959609a1b604482015260640161056f565b505b60048401546040805191825260208201859052339188917fad182a582b60dfb698b15ddbe85c01fe3d9c2161ef730aa75fbc0688d7a0ec3d9101610949565b60006001600160a01b0386166118995760405162461bcd60e51b8152602060048201526011602482015270125b9d985b1a59081c9958da5c1a595b9d607a1b604482015260640161056f565b336001600160a01b038716036118f15760405162461bcd60e51b815260206004820152601760248201527f43616e6e6f7420696e766f69636520796f757273656c66000000000000000000604482015260640161056f565b600085116119415760405162461bcd60e51b815260206004820152601d60248201527f416d6f756e74206d7573742062652067726561746572207468616e2030000000604482015260640161056f565b60008751116119875760405162461bcd60e51b815260206004820152601260248201527112541194c81a185cda081c995c5d5a5c995960721b604482015260640161056f565b4283116119d65760405162461bcd60e51b815260206004820152601e60248201527f4475652064617465206d75737420626520696e20746865206675747572650000604482015260640161056f565b600654604080516101608101825282815260208082018b815233838501526001600160a01b038b81166060850152608084018b9052891660a0840152600060c084018190524260e085015261010084018990526101208401819052610140840188905285815260029092529290208151815591519091906001820190611a5c9082612df3565b5060408201516002820180546001600160a01b03199081166001600160a01b039384161790915560608401516003840180548316918416919091179055608084015160048085019190915560a085015160058501805493841691909416908117845560c086015193926001600160a81b0319161790600160a01b908490811115611ae857611ae86127d3565b021790555060e08201516006820155610100820151600782015561012082015160088201556101408201516009820190611b229082612df3565b5050336000818152600460209081526040808320805460018181018355918552838520018790556001600160a01b038d1680855282852080549283018155855292909320909201859055905190925083907fdd996abc73a7e08d96a3fa8e14aa8a81f2370dacb9bea9476ee69b30524ffbee90611ba4908b908b908f90612ec6565b60405180910390a460068054906000611bbc83612ef9565b909155509098975050505050505050565b80600081118015611bdf575060065481105b611bfb5760405162461bcd60e51b815260040161056f90612ca1565b6000828152600260208190526040909120908101546001600160a01b03163314611c605760405162461bcd60e51b815260206004820152601660248201527513db9b1e481a5cdcdd595c8818d85b8818d85b98d95b60521b604482015260640161056f565b60006005820154600160a01b900460ff166004811115611c8257611c826127d3565b14611ccf5760405162461bcd60e51b815260206004820152601a60248201527f43616e6e6f742063616e63656c207468697320696e766f696365000000000000604482015260640161056f565b60058101805460ff60a01b1916600160a21b179055604051339084907f1893bd55c53ca5d28463267b3794ea27b1c3fc3b0cc5f86e0c5b613ad4156f0890600090a3505050565b611d1e61266f565b81600081118015611d30575060065481105b611d4c5760405162461bcd60e51b815260040161056f90612ca1565b600083815260036020908152604091829020825160e0810184528154815260018201546001600160a01b0316928101929092526002810180549293919291840191611d9690612d70565b80601f0160208091040260200160405190810160405280929190818152602001828054611dc290612d70565b8015611e0f5780601f10611de457610100808354040283529160200191611e0f565b820191906000526020600020905b815481529060010190602001808311611df257829003601f168201915b505050918352505060038281015460209092019160ff1690811115611e3657611e366127d3565b6003811115611e4757611e476127d3565b815260048201546020820152600582015460408201526006909101546001600160a01b03166060909101529392505050565b3360009081526005602052604090205460ff1680611ea157506001546001600160a01b031633145b611eed5760405162461bcd60e51b815260206004820152601760248201527f4e6f7420617574686f72697a6564207265736f6c766572000000000000000000604482015260640161056f565b81600081118015611eff575060065481105b611f1b5760405162461bcd60e51b815260040161056f90612ca1565b6000838152600360205260409020600160038083015460ff1690811115611f4457611f446127d3565b14611f855760405162461bcd60e51b81526020600482015260116024820152704e6f20616374697665206469737075746560781b604482015260640161056f565b6001836004811115611f9957611f996127d3565b1480611fb657506004836004811115611fb457611fb46127d3565b145b6120025760405162461bcd60e51b815260206004820152601960248201527f496e76616c6964207265736f6c7574696f6e2073746174757300000000000000604482015260640161056f565b600084815260026020526040902060058101805485919060ff60a01b1916600160a01b836004811115612037576120376127d3565b02179055506003828101805460ff191690911790554260058301556006820180546001600160a01b0319163317905560018201546007546040516000926001600160a01b031691908381818185875af1925050503d80600081146120b7576040519150601f19603f3d011682016040523d82523d6000602084013e6120bc565b606091505b505090508061210d5760405162461bcd60e51b815260206004820152601960248201527f446973707574652066656520726566756e64206661696c656400000000000000604482015260640161056f565b336001600160a01b0316867f0a1a08d07b8bb2ef5e6eea14f3719239138f1ce03a4ceea3196c1000a265c12a876040516121479190612f12565b60405180910390a3505050505050565b6060600060015b6006548110156121cc5785600481111561217a5761217a6127d3565b600082815260026020526040902060050154600160a01b900460ff1660048111156121a7576121a76127d3565b036121ba57816121b681612ef9565b9250505b806121c481612ef9565b91505061215e565b508015806121da5750808310155b15612219576040805160008082526020820190925290612210565b6121fd612614565b8152602001906001900390816121f55790505b50915050612529565b60006122258483612d3b565b905060008511801561223657508085105b1561223e5750835b60008167ffffffffffffffff811115612259576122596129d3565b60405190808252806020026020018201604052801561229257816020015b61227f612614565b8152602001906001900390816122775790505b50905060008060015b600654811080156122ab57508483105b15612520578960048111156122c2576122c26127d3565b600082815260026020526040902060050154600160a01b900460ff1660048111156122ef576122ef6127d3565b0361250e578782106125005760026000828152602001908152602001600020604051806101600160405290816000820154815260200160018201805461233490612d70565b80601f016020809104026020016040519081016040528092919081815260200182805461236090612d70565b80156123ad5780601f10612382576101008083540402835291602001916123ad565b820191906000526020600020905b81548152906001019060200180831161239057829003601f168201915b505050918352505060028201546001600160a01b03908116602083015260038301548116604083015260048084015460608401526005840154918216608084015260a090920191600160a01b90910460ff169081111561240f5761240f6127d3565b6004811115612420576124206127d3565b815260200160068201548152602001600782015481526020016008820154815260200160098201805461245290612d70565b80601f016020809104026020016040519081016040528092919081815260200182805461247e90612d70565b80156124cb5780601f106124a0576101008083540402835291602001916124cb565b820191906000526020600020905b8154815290600101906020018083116124ae57829003601f168201915b5050505050815250508484815181106124e6576124e6612f20565b602002602001018190525082806124fc90612ef9565b9350505b8161250a81612ef9565b9250505b8061251881612ef9565b91505061229b565b50919450505050505b9392505050565b612538612595565b6001600160a01b03811661256257604051631e4fbdf760e01b81526000600482015260240161056f565b610960816125c2565b60026000540361258e57604051633ee5aeb560e01b815260040160405180910390fd5b6002600055565b6001546001600160a01b03163314610e915760405163118cdaa760e01b815233600482015260240161056f565b600180546001600160a01b038381166001600160a01b0319831681179093556040519116919082907f8be0079c531659141344cd1fd0a4f28419497f9722a3daafe3b4186f6b6457e090600090a35050565b604080516101608101825260008082526060602083018190529282018190529181018290526080810182905260a081018290529060c08201908152602001600081526020016000815260200160008152602001606081525090565b6040518060e001604052806000815260200160006001600160a01b0316815260200160608152602001600060038111156126ab576126ab6127d3565b8152602001600081526020016000815260200160006001600160a01b031681525090565b80356001600160a01b03811681146126e657600080fd5b919050565b600080604083850312156126fe57600080fd5b612707836126cf565b946020939093013593505050565b60006020828403121561272757600080fd5b5035919050565b60006020828403121561274057600080fd5b612529826126cf565b6020808252825182820181905260009190848201906040850190845b8181101561278157835183529284019291840191600101612765565b50909695505050505050565b6000815180845260005b818110156127b357602081850181015186830182015201612797565b506000602082860101526020601f19601f83011685010191505092915050565b634e487b7160e01b600052602160045260246000fd5b600581106127f9576127f96127d3565b9052565b600061016082518452602083015181602086015261281d8286018261278d565b915050604083015161283a60408601826001600160a01b03169052565b50606083015161285560608601826001600160a01b03169052565b506080830151608085015260a083015161287a60a08601826001600160a01b03169052565b5060c083015161288d60c08601826127e9565b5060e083810151908501526101008084015190850152610120808401519085015261014080840151858303828701526128c6838261278d565b9695505050505050565b60208152600061252960208301846127fd565b60006101608d83528060208401526128fd8184018e61278d565b6001600160a01b038d811660408601528c81166060860152608085018c90528a1660a0850152905061293260c08401896127e9565b8660e08401528561010084015284610120840152828103610140840152612959818561278d565b9e9d5050505050505050505050505050565b600481106127f9576127f96127d3565b878152600060018060a01b03808916602084015260e060408401526129a360e084018961278d565b91506129b2606084018861296b565b8560808401528460a084015280841660c08401525098975050505050505050565b634e487b7160e01b600052604160045260246000fd5b600082601f8301126129fa57600080fd5b813567ffffffffffffffff80821115612a1557612a156129d3565b604051601f8301601f19908116603f01168101908282118183101715612a3d57612a3d6129d3565b81604052838152866020858801011115612a5657600080fd5b836020870160208301376000602085830101528094505050505092915050565b60008060408385031215612a8957600080fd5b82359150602083013567ffffffffffffffff811115612aa757600080fd5b612ab3858286016129e9565b9150509250929050565b60008060008060008060c08789031215612ad657600080fd5b863567ffffffffffffffff80821115612aee57600080fd5b612afa8a838b016129e9565b9750612b0860208a016126cf565b965060408901359550612b1d60608a016126cf565b94506080890135935060a0890135915080821115612b3a57600080fd5b50612b4789828a016129e9565b9150509295509295509295565b60208082528251828201528201516001600160a01b0390811660408084019190915283015160e06060840152600091612b9161010085018361278d565b91506060850151612ba5608086018261296b565b50608085015160a085015260a085015160c08501528060c08601511660e0850152508091505092915050565b8035600581106126e657600080fd5b60008060408385031215612bf357600080fd5b82359150612c0360208401612bd1565b90509250929050565b600080600060608486031215612c2157600080fd5b612c2a84612bd1565b95602085013595506040909401359392505050565b6000602080830181845280855180835260408601915060408160051b870101925083870160005b82811015612c9457603f19888603018452612c828583516127fd565b94509285019290850190600101612c66565b5092979650505050505050565b602080825260129082015271125b9d985b1a59081a5b9d9bda58d948125160721b604082015260600190565b600060208284031215612cdf57600080fd5b5051919050565b634e487b7160e01b600052601160045260246000fd5b8082028115828204841417612d1357612d13612ce6565b92915050565b600082612d3657634e487b7160e01b600052601260045260246000fd5b500490565b81810381811115612d1357612d13612ce6565b600060208284031215612d6057600080fd5b8151801515811461252957600080fd5b600181811c90821680612d8457607f821691505b602082108103610c0d57634e487b7160e01b600052602260045260246000fd5b601f821115612dee57600081815260208120601f850160051c81016020861015612dcb5750805b601f850160051c820191505b81811015612dea57828155600101612dd7565b5050505b505050565b815167ffffffffffffffff811115612e0d57612e0d6129d3565b612e2181612e1b8454612d70565b84612da4565b602080601f831160018114612e565760008415612e3e5750858301515b600019600386901b1c1916600185901b178555612dea565b600085815260208120601f198616915b82811015612e8557888601518255948401946001909101908401612e66565b5085821015612ea35787850151600019600388901b60f8161c191681555b5050505050600190811b01905550565b602081526000612529602083018461278d565b8381526001600160a01b0383166020820152606060408201819052600090612ef09083018461278d565b95945050505050565b600060018201612f0b57612f0b612ce6565b5060010190565b60208101612d1382846127e9565b634e487b7160e01b600052603260045260246000fdfea264697066735822122046cd0c24a69e5184ce6c63280ad0459ba34a86e7e5eae4d25aa31942f030d8b564736f6c63430008140033",
  "linkReferences": {},
  "deployedLinkReferences": {}
}